{
  "contractName": "KYC",
  "abi": [
    {
      "inputs": [],
      "stateMutability": "nonpayable",
      "type": "constructor"
    },
    {
      "anonymous": false,
      "inputs": [
        {
          "indexed": true,
          "internalType": "address",
          "name": "user",
          "type": "address"
        }
      ],
      "name": "UserRegistered",
      "type": "event"
    },
    {
      "anonymous": false,
      "inputs": [
        {
          "indexed": true,
          "internalType": "address",
          "name": "user",
          "type": "address"
        }
      ],
      "name": "UserVerified",
      "type": "event"
    },
    {
      "inputs": [],
      "name": "admin",
      "outputs": [
        {
          "internalType": "address",
          "name": "",
          "type": "address"
        }
      ],
      "stateMutability": "view",
      "type": "function",
      "constant": true
    },
    {
      "inputs": [
        {
          "internalType": "address",
          "name": "",
          "type": "address"
        }
      ],
      "name": "users",
      "outputs": [
        {
          "internalType": "string",
          "name": "name",
          "type": "string"
        },
        {
          "internalType": "string",
          "name": "email",
          "type": "string"
        },
        {
          "internalType": "string",
          "name": "idNumber",
          "type": "string"
        },
        {
          "internalType": "bool",
          "name": "verified",
          "type": "bool"
        }
      ],
      "stateMutability": "view",
      "type": "function",
      "constant": true
    },
    {
      "inputs": [
        {
          "internalType": "string",
          "name": "_name",
          "type": "string"
        },
        {
          "internalType": "string",
          "name": "_email",
          "type": "string"
        },
        {
          "internalType": "string",
          "name": "_idNumber",
          "type": "string"
        }
      ],
      "name": "registerUser",
      "outputs": [],
      "stateMutability": "nonpayable",
      "type": "function"
    },
    {
      "inputs": [
        {
          "internalType": "address",
          "name": "_user",
          "type": "address"
        }
      ],
      "name": "verifyUser",
      "outputs": [],
      "stateMutability": "nonpayable",
      "type": "function"
    },
    {
      "inputs": [
        {
          "internalType": "address",
          "name": "_user",
          "type": "address"
        }
      ],
      "name": "getUser",
      "outputs": [
        {
          "internalType": "string",
          "name": "",
          "type": "string"
        },
        {
          "internalType": "string",
          "name": "",
          "type": "string"
        },
        {
          "internalType": "string",
          "name": "",
          "type": "string"
        },
        {
          "internalType": "bool",
          "name": "",
          "type": "bool"
        }
      ],
      "stateMutability": "view",
      "type": "function",
      "constant": true
    }
  ],
  "bytecode": "0x608060405234801561001057600080fd5b5033600160006101000a81548173ffffffffffffffffffffffffffffffffffffffff021916908373ffffffffffffffffffffffffffffffffffffffff160217905550610eac806100616000396000f3fe608060405234801561001057600080fd5b50600436106100575760003560e01c80634d8131201461005c5780636f77926b14610078578063a87430ba146100ab578063d637dcfa146100de578063f851a440146100fa575b600080fd5b610076600480360381019061007191906109ef565b610118565b005b610092600480360381019061008d91906109ef565b6102d8565b6040516100a29493929190610c07565b60405180910390f35b6100c560048036038101906100c091906109ef565b610520565b6040516100d59493929190610c07565b60405180910390f35b6100f860048036038101906100f39190610a18565b6106f5565b005b6101026108a9565b60405161010f9190610bec565b60405180910390f35b600160009054906101000a900473ffffffffffffffffffffffffffffffffffffffff1673ffffffffffffffffffffffffffffffffffffffff163373ffffffffffffffffffffffffffffffffffffffff16146101a8576040517f08c379a000000000000000000000000000000000000000000000000000000000815260040161019f90610ca1565b60405180910390fd5b60008060008373ffffffffffffffffffffffffffffffffffffffff1673ffffffffffffffffffffffffffffffffffffffff16815260200190815260200160002060000180546101f690610dbe565b905011610238576040517f08c379a000000000000000000000000000000000000000000000000000000000815260040161022f90610c61565b60405180910390fd5b60016000808373ffffffffffffffffffffffffffffffffffffffff1673ffffffffffffffffffffffffffffffffffffffff16815260200190815260200160002060030160006101000a81548160ff0219169083151502179055508073ffffffffffffffffffffffffffffffffffffffff167fa6625d2d26e786e2f473111bea4b2fcdbbf1863d883a2359989ce3a103d2972a60405160405180910390a250565b60608060606000806000808773ffffffffffffffffffffffffffffffffffffffff1673ffffffffffffffffffffffffffffffffffffffff16815260200190815260200160002060405180608001604052908160008201805461033990610dbe565b80601f016020809104026020016040519081016040528092919081815260200182805461036590610dbe565b80156103b25780601f10610387576101008083540402835291602001916103b2565b820191906000526020600020905b81548152906001019060200180831161039557829003601f168201915b505050505081526020016001820180546103cb90610dbe565b80601f01602080910402602001604051908101604052809291908181526020018280546103f790610dbe565b80156104445780601f1061041957610100808354040283529160200191610444565b820191906000526020600020905b81548152906001019060200180831161042757829003601f168201915b5050505050815260200160028201805461045d90610dbe565b80601f016020809104026020016040519081016040528092919081815260200182805461048990610dbe565b80156104d65780601f106104ab576101008083540402835291602001916104d6565b820191906000526020600020905b8154815290600101906020018083116104b957829003601f168201915b505050505081526020016003820160009054906101000a900460ff161515151581525050905080600001518160200151826040015183606001519450945094509450509193509193565b600060205280600052604060002060009150905080600001805461054390610dbe565b80601f016020809104026020016040519081016040528092919081815260200182805461056f90610dbe565b80156105bc5780601f10610591576101008083540402835291602001916105bc565b820191906000526020600020905b81548152906001019060200180831161059f57829003601f168201915b5050505050908060010180546105d190610dbe565b80601f01602080910402602001604051908101604052809291908181526020018280546105fd90610dbe565b801561064a5780601f1061061f5761010080835404028352916020019161064a565b820191906000526020600020905b81548152906001019060200180831161062d57829003601f168201915b50505050509080600201805461065f90610dbe565b80601f016020809104026020016040519081016040528092919081815260200182805461068b90610dbe565b80156106d85780601f106106ad576101008083540402835291602001916106d8565b820191906000526020600020905b8154815290600101906020018083116106bb57829003601f168201915b5050505050908060030160009054906101000a900460ff16905084565b60008060003373ffffffffffffffffffffffffffffffffffffffff1673ffffffffffffffffffffffffffffffffffffffff168152602001908152602001600020600001805461074390610dbe565b905014610785576040517f08c379a000000000000000000000000000000000000000000000000000000000815260040161077c90610c81565b60405180910390fd5b6040518060800160405280848152602001838152602001828152602001600015158152506000803373ffffffffffffffffffffffffffffffffffffffff1673ffffffffffffffffffffffffffffffffffffffff16815260200190815260200160002060008201518160000190805190602001906108039291906108cf565b5060208201518160010190805190602001906108209291906108cf565b50604082015181600201908051906020019061083d9291906108cf565b5060608201518160030160006101000a81548160ff0219169083151502179055509050503373ffffffffffffffffffffffffffffffffffffffff167f54db7a5cb4735e1aac1f53db512d3390390bb6637bd30ad4bf9fc98667d9b9b960405160405180910390a2505050565b600160009054906101000a900473ffffffffffffffffffffffffffffffffffffffff1681565b8280546108db90610dbe565b90600052602060002090601f0160209004810192826108fd5760008555610944565b82601f1061091657805160ff1916838001178555610944565b82800160010185558215610944579182015b82811115610943578251825591602001919060010190610928565b5b5090506109519190610955565b5090565b5b8082111561096e576000816000905550600101610956565b5090565b600061098561098084610cf2565b610cc1565b90508281526020810184848401111561099d57600080fd5b6109a8848285610d7c565b509392505050565b6000813590506109bf81610e5f565b92915050565b600082601f8301126109d657600080fd5b81356109e6848260208601610972565b91505092915050565b600060208284031215610a0157600080fd5b6000610a0f848285016109b0565b91505092915050565b600080600060608486031215610a2d57600080fd5b600084013567ffffffffffffffff811115610a4757600080fd5b610a53868287016109c5565b935050602084013567ffffffffffffffff811115610a7057600080fd5b610a7c868287016109c5565b925050604084013567ffffffffffffffff811115610a9957600080fd5b610aa5868287016109c5565b9150509250925092565b610ab881610d3e565b82525050565b610ac781610d50565b82525050565b6000610ad882610d22565b610ae28185610d2d565b9350610af2818560208601610d8b565b610afb81610e4e565b840191505092915050565b6000610b13600e83610d2d565b91507f55736572206e6f7420666f756e640000000000000000000000000000000000006000830152602082019050919050565b6000610b53601783610d2d565b91507f5573657220616c726561647920726567697374657265640000000000000000006000830152602082019050919050565b6000610b93602283610d2d565b91507f4f6e6c792061646d696e2063616e20706572666f726d2074686973206163746960008301527f6f6e0000000000000000000000000000000000000000000000000000000000006020830152604082019050919050565b6000602082019050610c016000830184610aaf565b92915050565b60006080820190508181036000830152610c218187610acd565b90508181036020830152610c358186610acd565b90508181036040830152610c498185610acd565b9050610c586060830184610abe565b95945050505050565b60006020820190508181036000830152610c7a81610b06565b9050919050565b60006020820190508181036000830152610c9a81610b46565b9050919050565b60006020820190508181036000830152610cba81610b86565b9050919050565b6000604051905081810181811067ffffffffffffffff82111715610ce857610ce7610e1f565b5b8060405250919050565b600067ffffffffffffffff821115610d0d57610d0c610e1f565b5b601f19601f8301169050602081019050919050565b600081519050919050565b600082825260208201905092915050565b6000610d4982610d5c565b9050919050565b60008115159050919050565b600073ffffffffffffffffffffffffffffffffffffffff82169050919050565b82818337600083830152505050565b60005b83811015610da9578082015181840152602081019050610d8e565b83811115610db8576000848401525b50505050565b60006002820490506001821680610dd657607f821691505b60208210811415610dea57610de9610df0565b5b50919050565b7f4e487b7100000000000000000000000000000000000000000000000000000000600052602260045260246000fd5b7f4e487b7100000000000000000000000000000000000000000000000000000000600052604160045260246000fd5b6000601f19601f8301169050919050565b610e6881610d3e565b8114610e7357600080fd5b5056fea26469706673582212206e73a44e48218226737bcdfb09c79ff3e5081d9ab0b141cc43909cd7fa90b3dd64736f6c63430008000033",
  "immutableReferences": {},
  "source": "// SPDX-License-Identifier: MIT\npragma solidity ^0.8.0;\n\ncontract KYC {\n    struct User {\n        string name;\n        string email;\n        string idNumber; // For simplicity, let's use a single ID number\n        bool verified;\n    }\n\n    mapping(address => User) public users;\n    address public admin;\n\n    event UserRegistered(address indexed user);\n    event UserVerified(address indexed user);\n\n    constructor() {\n        admin = msg.sender; // Set the deployer as the admin\n    }\n\n    modifier onlyAdmin() {\n        require(msg.sender == admin, \"Only admin can perform this action\");\n        _;\n    }\n\n    function registerUser(string memory _name, string memory _email, string memory _idNumber) public {\n        // Prevent overwriting existing user data\n        require(bytes(users[msg.sender].name).length == 0, \"User already registered\");\n        \n        // Register the user\n        users[msg.sender] = User(_name, _email, _idNumber, false);\n        \n        // Emit event for registration\n        emit UserRegistered(msg.sender);\n    }\n\n    function verifyUser(address _user) public onlyAdmin {\n        // Check if user exists\n        require(bytes(users[_user].name).length > 0, \"User not found\");\n        \n        // Verify the user\n        users[_user].verified = true;\n        \n        // Emit event for verification\n        emit UserVerified(_user);\n    }\n\n    function getUser(address _user) public view returns (string memory, string memory, string memory, bool) {\n        User memory user = users[_user];\n        return (user.name, user.email, user.idNumber, user.verified);\n    }\n}\n",
  "sourcePath": "/Users/apple/Desktop/kyc-blockchain/contracts/KYC.sol",
  "compiler": {
    "name": "solc",
    "version": "0.8.0+commit.c7dfd78e.Emscripten.clang"
  },
  "schemaVersion": "3.4.16",
  "updatedAt": "2024-09-25T17:31:01.297Z",
  "networkType": "ethereum",
  "devdoc": {
    "kind": "dev",
    "methods": {},
    "version": 1
  },
  "userdoc": {
    "kind": "user",
    "methods": {},
    "version": 1
  }
}